S00F00004154696E7931302E73726563CF
S11300000BC026C025C024C023C0EEC021C020C020
S11300101FC01EC01DC0150111271FBFCFE5D0E0B2
S1130020DEBFCDBF20E0A0E4B0E001C01D93A73443
S1130030B207E1F720E0CCE0D0E005C0C150D040E9
S1130040FD2FEC2FF7D0CB30D207C1F7BCD0FAC0CC
S1130050D7CFE82FF92F6083EE5FFF4F1083129301
S1130060089561130FC062B141E050E0E82FF92F09
S1130070008102C0440F551F0A95E2F740954623BC
S113008042B9089562B141E050E0E82FF92F0081B0
S113009002C0440F551F0A95E2F7462B42B9089552
S11300A02F933F93CF93DF93CDB7DEB7282F392F0C
S11300B051B181E090E0E22FF32F008102C0880F5C
S11300C0991F0A95E2F7852B81B9EC5FFF4F5081A8
S11300D0E450F040451728F05150ED5FFF4F508336
S11300E005C0E22FF32FED5FFF4F4083822F932F44
S11300F0B8DFC85FDF4F49915881E22FF32FEA5FE1
S1130100FF4F50834293DF91CF913F912F910895F8
S1130110E82FF92FEF5FFF4F41915081E250F040FB
S11301204F5F5F4FEE5FFF4F50834293E150F040CB
S1130130ED5FFF4F6081E350F040EB5FFF4FA08124
S1130140E550F040EA5FFF4F7081EA2FF72FE60F8A
S1130150F11FE60FF11F619170814617570744F1B3
S1130160E82FF92FEE5FFF4F10831293E150F04018
S113017062B141E050E0008102C0440F551F0A956E
S1130180E2F7462742B9ED5FFF4F4081E350F0406C
S11301904F5FED5FFF4F4083E350F040EC5FFF4F54
S11301A05081E450F040451718F0ED5FFF4F108385
S11301B0089542E04EBD6CE770E077BD66BD53E044
S11301C05DBD4BBD089548E452E45F934F9349E00D
S11301D04F9340E060E080E490E062DFEADF7894EF
S11301E00F910F910F91FFCF1F930F930FB70F93A1
S11301F010E04F935F936F937F938F939F93AF938D
S1130200BF93EF93FF9380E490E082DFFF91EF913F
S1130210BF91AF919F918F917F916F915F914F911A
S11302200F910FBF0F911F91189560E080E490E04B
S113023010DF0895EE0FFF1FE050F04C0191F081A4
S10B0240E02F0994F894FFCFAC
S11302482800280028002800280028002800280062
S1050258780028
S9030000FC
